{
  "_format": "hh-sol-artifact-1",
  "contractName": "CertificateRegistry",
  "sourceName": "contracts/CertificateRegistry.sol",
  "abi": [
    {
      "anonymous": false,
      "inputs": [
        {
          "indexed": true,
          "internalType": "bytes32",
          "name": "sha256",
          "type": "bytes32"
        },
        {
          "indexed": false,
          "internalType": "string",
          "name": "ipfsCid",
          "type": "string"
        },
        {
          "indexed": true,
          "internalType": "address",
          "name": "issuer",
          "type": "address"
        },
        {
          "indexed": true,
          "internalType": "address",
          "name": "student",
          "type": "address"
        },
        {
          "indexed": false,
          "internalType": "uint256",
          "name": "issuedAt",
          "type": "uint256"
        }
      ],
      "name": "CertificateRegistered",
      "type": "event"
    },
    {
      "inputs": [
        {
          "internalType": "bytes32",
          "name": "sha256Hash",
          "type": "bytes32"
        }
      ],
      "name": "getCertificate",
      "outputs": [
        {
          "components": [
            {
              "internalType": "bytes32",
              "name": "sha256",
              "type": "bytes32"
            },
            {
              "internalType": "string",
              "name": "ipfsCid",
              "type": "string"
            },
            {
              "internalType": "address",
              "name": "issuer",
              "type": "address"
            },
            {
              "internalType": "address",
              "name": "student",
              "type": "address"
            },
            {
              "internalType": "uint256",
              "name": "issuedAt",
              "type": "uint256"
            }
          ],
          "internalType": "struct CertificateRegistry.Record",
          "name": "",
          "type": "tuple"
        }
      ],
      "stateMutability": "view",
      "type": "function"
    },
    {
      "inputs": [
        {
          "internalType": "bytes32",
          "name": "",
          "type": "bytes32"
        }
      ],
      "name": "records",
      "outputs": [
        {
          "internalType": "bytes32",
          "name": "sha256",
          "type": "bytes32"
        },
        {
          "internalType": "string",
          "name": "ipfsCid",
          "type": "string"
        },
        {
          "internalType": "address",
          "name": "issuer",
          "type": "address"
        },
        {
          "internalType": "address",
          "name": "student",
          "type": "address"
        },
        {
          "internalType": "uint256",
          "name": "issuedAt",
          "type": "uint256"
        }
      ],
      "stateMutability": "view",
      "type": "function"
    },
    {
      "inputs": [
        {
          "internalType": "bytes32",
          "name": "sha256Hash",
          "type": "bytes32"
        },
        {
          "internalType": "string",
          "name": "ipfsCid",
          "type": "string"
        },
        {
          "internalType": "address",
          "name": "student",
          "type": "address"
        }
      ],
      "name": "registerCertificate",
      "outputs": [],
      "stateMutability": "nonpayable",
      "type": "function"
    }
  ],
  "bytecode": "0x608060405234801561001057600080fd5b50610dde806100206000396000f3fe608060405234801561001057600080fd5b50600436106100415760003560e01c806301e6472514610046578063a64fbc001461007a578063f333fe0814610096575b600080fd5b610060600480360381019061005b91906105cf565b6100c6565b6040516100719594939291906106f5565b60405180910390f35b610094600480360381019061008f91906108b0565b6101c4565b005b6100b060048036038101906100ab91906105cf565b6103a9565b6040516100bd9190610a0c565b60405180910390f35b60006020528060005260406000206000915090508060000154908060010180546100ef90610a5d565b80601f016020809104026020016040519081016040528092919081815260200182805461011b90610a5d565b80156101685780601f1061013d57610100808354040283529160200191610168565b820191906000526020600020905b81548152906001019060200180831161014b57829003601f168201915b5050505050908060020160009054906101000a900473ffffffffffffffffffffffffffffffffffffffff16908060030160009054906101000a900473ffffffffffffffffffffffffffffffffffffffff16908060040154905085565b6000806000858152602001908152602001600020600401541461021c576040517f08c379a000000000000000000000000000000000000000000000000000000000815260040161021390610ada565b60405180910390fd5b6040518060a001604052808481526020018381526020013373ffffffffffffffffffffffffffffffffffffffff1681526020018273ffffffffffffffffffffffffffffffffffffffff168152602001428152506000808581526020019081526020016000206000820151816000015560208201518160010190816102a09190610ca6565b5060408201518160020160006101000a81548173ffffffffffffffffffffffffffffffffffffffff021916908373ffffffffffffffffffffffffffffffffffffffff16021790555060608201518160030160006101000a81548173ffffffffffffffffffffffffffffffffffffffff021916908373ffffffffffffffffffffffffffffffffffffffff160217905550608082015181600401559050508073ffffffffffffffffffffffffffffffffffffffff163373ffffffffffffffffffffffffffffffffffffffff16847f8db1e97c0379adb0ffc56041d7bb5b14969604d43b65759334fb822a46133a0c854260405161039c929190610d78565b60405180910390a4505050565b6103b1610527565b6000808381526020019081526020016000206040518060a0016040529081600082015481526020016001820180546103e890610a5d565b80601f016020809104026020016040519081016040528092919081815260200182805461041490610a5d565b80156104615780601f1061043657610100808354040283529160200191610461565b820191906000526020600020905b81548152906001019060200180831161044457829003601f168201915b505050505081526020016002820160009054906101000a900473ffffffffffffffffffffffffffffffffffffffff1673ffffffffffffffffffffffffffffffffffffffff1673ffffffffffffffffffffffffffffffffffffffff1681526020016003820160009054906101000a900473ffffffffffffffffffffffffffffffffffffffff1673ffffffffffffffffffffffffffffffffffffffff1673ffffffffffffffffffffffffffffffffffffffff1681526020016004820154815250509050919050565b6040518060a001604052806000801916815260200160608152602001600073ffffffffffffffffffffffffffffffffffffffff168152602001600073ffffffffffffffffffffffffffffffffffffffff168152602001600081525090565b6000604051905090565b600080fd5b600080fd5b6000819050919050565b6105ac81610599565b81146105b757600080fd5b50565b6000813590506105c9816105a3565b92915050565b6000602082840312156105e5576105e461058f565b5b60006105f3848285016105ba565b91505092915050565b61060581610599565b82525050565b600081519050919050565b600082825260208201905092915050565b60005b8381101561064557808201518184015260208101905061062a565b60008484015250505050565b6000601f19601f8301169050919050565b600061066d8261060b565b6106778185610616565b9350610687818560208601610627565b61069081610651565b840191505092915050565b600073ffffffffffffffffffffffffffffffffffffffff82169050919050565b60006106c68261069b565b9050919050565b6106d6816106bb565b82525050565b6000819050919050565b6106ef816106dc565b82525050565b600060a08201905061070a60008301886105fc565b818103602083015261071c8187610662565b905061072b60408301866106cd565b61073860608301856106cd565b61074560808301846106e6565b9695505050505050565b600080fd5b600080fd5b7f4e487b7100000000000000000000000000000000000000000000000000000000600052604160045260246000fd5b61079182610651565b810181811067ffffffffffffffff821117156107b0576107af610759565b5b80604052505050565b60006107c3610585565b90506107cf8282610788565b919050565b600067ffffffffffffffff8211156107ef576107ee610759565b5b6107f882610651565b9050602081019050919050565b82818337600083830152505050565b6000610827610822846107d4565b6107b9565b90508281526020810184848401111561084357610842610754565b5b61084e848285610805565b509392505050565b600082601f83011261086b5761086a61074f565b5b813561087b848260208601610814565b91505092915050565b61088d816106bb565b811461089857600080fd5b50565b6000813590506108aa81610884565b92915050565b6000806000606084860312156108c9576108c861058f565b5b60006108d7868287016105ba565b935050602084013567ffffffffffffffff8111156108f8576108f7610594565b5b61090486828701610856565b92505060406109158682870161089b565b9150509250925092565b61092881610599565b82525050565b600082825260208201905092915050565b600061094a8261060b565b610954818561092e565b9350610964818560208601610627565b61096d81610651565b840191505092915050565b610981816106bb565b82525050565b610990816106dc565b82525050565b600060a0830160008301516109ae600086018261091f565b50602083015184820360208601526109c6828261093f565b91505060408301516109db6040860182610978565b5060608301516109ee6060860182610978565b506080830151610a016080860182610987565b508091505092915050565b60006020820190508181036000830152610a268184610996565b905092915050565b7f4e487b7100000000000000000000000000000000000000000000000000000000600052602260045260246000fd5b60006002820490506001821680610a7557607f821691505b602082108103610a8857610a87610a2e565b5b50919050565b7f436572746966696361746520616c726561647920726567697374657265640000600082015250565b6000610ac4601e83610616565b9150610acf82610a8e565b602082019050919050565b60006020820190508181036000830152610af381610ab7565b9050919050565b60008190508160005260206000209050919050565b60006020601f8301049050919050565b600082821b905092915050565b600060088302610b5c7fffffffffffffffffffffffffffffffffffffffffffffffffffffffffffffffff82610b1f565b610b668683610b1f565b95508019841693508086168417925050509392505050565b6000819050919050565b6000610ba3610b9e610b99846106dc565b610b7e565b6106dc565b9050919050565b6000819050919050565b610bbd83610b88565b610bd1610bc982610baa565b848454610b2c565b825550505050565b600090565b610be6610bd9565b610bf1818484610bb4565b505050565b5b81811015610c1557610c0a600082610bde565b600181019050610bf7565b5050565b601f821115610c5a57610c2b81610afa565b610c3484610b0f565b81016020851015610c43578190505b610c57610c4f85610b0f565b830182610bf6565b50505b505050565b600082821c905092915050565b6000610c7d60001984600802610c5f565b1980831691505092915050565b6000610c968383610c6c565b9150826002028217905092915050565b610caf8261060b565b67ffffffffffffffff811115610cc857610cc7610759565b5b610cd28254610a5d565b610cdd828285610c19565b600060209050601f831160018114610d105760008415610cfe578287015190505b610d088582610c8a565b865550610d70565b601f198416610d1e86610afa565b60005b82811015610d4657848901518255600182019150602085019450602081019050610d21565b86831015610d635784890151610d5f601f891682610c6c565b8355505b6001600288020188555050505b505050505050565b60006040820190508181036000830152610d928185610662565b9050610da160208301846106e6565b939250505056fea264697066735822122098278994b8c1e3d477dea1d7d5ffe56287f85ffca76f0c118471bb46853910a464736f6c63430008110033",
  "linkReferences": {},
  "deployedLinkReferences": {}
}